{
  "address": "0xa513E6E4b8f2a923D98304ec87F64353C4D5C853",
  "abi": [
    {
      "inputs": [
        {
          "internalType": "einput",
          "name": "_a",
          "type": "bytes32"
        },
        {
          "internalType": "bytes",
          "name": "_proofA",
          "type": "bytes"
        },
        {
          "internalType": "einput",
          "name": "_b",
          "type": "bytes32"
        },
        {
          "internalType": "bytes",
          "name": "_proofB",
          "type": "bytes"
        }
      ],
      "name": "bitwiseXor",
      "outputs": [],
      "stateMutability": "nonpayable",
      "type": "function"
    }
  ],
  "transactionHash": "0xd87d2ded04ea0bde2dcbd19e0f6926dc696752b2bc98a26a7ca3c9dee049cbc3",
  "args": [],
  "numDeployments": 1,
  "solcInputHash": "5576132902fbc32c5d93c509f268feef",
  "bytecode": "0x6080604052348015600f57600080fd5b506102248061001f6000396000f3fe608060405234801561001057600080fd5b506004361061002b5760003560e01c80635aa0f2c214610030575b600080fd5b61004a60048036038101906100459190610147565b61004c565b005b600061005987878761008d565b9050600061006885858561008d565b905060006100768383610096565b9050610082813361009e565b505050505050505050565b60009392505050565b600092915050565b5050565b600080fd5b600080fd5b6000819050919050565b6100bf816100ac565b81146100ca57600080fd5b50565b6000813590506100dc816100b6565b92915050565b600080fd5b600080fd5b600080fd5b60008083601f840112610107576101066100e2565b5b8235905067ffffffffffffffff811115610124576101236100e7565b5b6020830191508360018202830111156101405761013f6100ec565b5b9250929050565b60008060008060008060808789031215610164576101636100a2565b5b600061017289828a016100cd565b965050602087013567ffffffffffffffff811115610193576101926100a7565b5b61019f89828a016100f1565b955095505060406101b289828a016100cd565b935050606087013567ffffffffffffffff8111156101d3576101d26100a7565b5b6101df89828a016100f1565b9250925050929550929550929556fea2646970667358221220b4e390934f844423f6eb55dbc2e93da7d43ac511a0dcb0a3b596832fad6a822264736f6c634300081c0033",
  "devdoc": {
    "kind": "dev",
    "methods": {},
    "version": 1
  },
  "userdoc": {
    "kind": "user",
    "methods": {},
    "version": 1
  },
  "storageLayout": {
    "storage": [],
    "types": null
  }
}